{
  "_format": "hh-sol-artifact-1",
  "contractName": "MemeRewards",
  "sourceName": "contracts/MemeRewards.sol",
  "abi": [
    {
      "inputs": [],
      "stateMutability": "nonpayable",
      "type": "constructor"
    },
    {
      "inputs": [
        {
          "internalType": "address",
          "name": "owner",
          "type": "address"
        }
      ],
      "name": "OwnableInvalidOwner",
      "type": "error"
    },
    {
      "inputs": [
        {
          "internalType": "address",
          "name": "account",
          "type": "address"
        }
      ],
      "name": "OwnableUnauthorizedAccount",
      "type": "error"
    },
    {
      "inputs": [],
      "name": "ReentrancyGuardReentrantCall",
      "type": "error"
    },
    {
      "anonymous": false,
      "inputs": [
        {
          "indexed": true,
          "internalType": "address",
          "name": "creator",
          "type": "address"
        },
        {
          "indexed": false,
          "internalType": "uint256",
          "name": "amount",
          "type": "uint256"
        },
        {
          "indexed": false,
          "internalType": "uint256",
          "name": "memeId",
          "type": "uint256"
        }
      ],
      "name": "LikeRewardDeposited",
      "type": "event"
    },
    {
      "anonymous": false,
      "inputs": [
        {
          "indexed": false,
          "internalType": "bytes32",
          "name": "newRoot",
          "type": "bytes32"
        }
      ],
      "name": "MerkleRootUpdated",
      "type": "event"
    },
    {
      "anonymous": false,
      "inputs": [
        {
          "indexed": true,
          "internalType": "address",
          "name": "previousOwner",
          "type": "address"
        },
        {
          "indexed": true,
          "internalType": "address",
          "name": "newOwner",
          "type": "address"
        }
      ],
      "name": "OwnershipTransferred",
      "type": "event"
    },
    {
      "anonymous": false,
      "inputs": [
        {
          "indexed": false,
          "internalType": "uint256",
          "name": "newAmount",
          "type": "uint256"
        }
      ],
      "name": "RewardPerLikeUpdated",
      "type": "event"
    },
    {
      "anonymous": false,
      "inputs": [
        {
          "indexed": true,
          "internalType": "address",
          "name": "creator",
          "type": "address"
        },
        {
          "indexed": false,
          "internalType": "uint256",
          "name": "amount",
          "type": "uint256"
        }
      ],
      "name": "RewardsClaimed",
      "type": "event"
    },
    {
      "inputs": [],
      "name": "claimPendingRewards",
      "outputs": [],
      "stateMutability": "nonpayable",
      "type": "function"
    },
    {
      "inputs": [
        {
          "internalType": "uint256",
          "name": "totalAmount",
          "type": "uint256"
        },
        {
          "internalType": "bytes32[]",
          "name": "merkleProof",
          "type": "bytes32[]"
        }
      ],
      "name": "claimRewards",
      "outputs": [],
      "stateMutability": "nonpayable",
      "type": "function"
    },
    {
      "inputs": [
        {
          "internalType": "address",
          "name": "",
          "type": "address"
        }
      ],
      "name": "claimedRewards",
      "outputs": [
        {
          "internalType": "uint256",
          "name": "",
          "type": "uint256"
        }
      ],
      "stateMutability": "view",
      "type": "function"
    },
    {
      "inputs": [
        {
          "internalType": "address",
          "name": "creator",
          "type": "address"
        },
        {
          "internalType": "uint256",
          "name": "memeId",
          "type": "uint256"
        }
      ],
      "name": "depositLikeReward",
      "outputs": [],
      "stateMutability": "payable",
      "type": "function"
    },
    {
      "inputs": [],
      "name": "emergencyWithdraw",
      "outputs": [],
      "stateMutability": "nonpayable",
      "type": "function"
    },
    {
      "inputs": [
        {
          "internalType": "address",
          "name": "user",
          "type": "address"
        }
      ],
      "name": "getClaimedRewards",
      "outputs": [
        {
          "internalType": "uint256",
          "name": "",
          "type": "uint256"
        }
      ],
      "stateMutability": "view",
      "type": "function"
    },
    {
      "inputs": [
        {
          "internalType": "address",
          "name": "user",
          "type": "address"
        }
      ],
      "name": "getPendingRewards",
      "outputs": [
        {
          "internalType": "uint256",
          "name": "",
          "type": "uint256"
        }
      ],
      "stateMutability": "view",
      "type": "function"
    },
    {
      "inputs": [],
      "name": "merkleRoot",
      "outputs": [
        {
          "internalType": "bytes32",
          "name": "",
          "type": "bytes32"
        }
      ],
      "stateMutability": "view",
      "type": "function"
    },
    {
      "inputs": [],
      "name": "owner",
      "outputs": [
        {
          "internalType": "address",
          "name": "",
          "type": "address"
        }
      ],
      "stateMutability": "view",
      "type": "function"
    },
    {
      "inputs": [
        {
          "internalType": "address",
          "name": "",
          "type": "address"
        }
      ],
      "name": "pendingRewards",
      "outputs": [
        {
          "internalType": "uint256",
          "name": "",
          "type": "uint256"
        }
      ],
      "stateMutability": "view",
      "type": "function"
    },
    {
      "inputs": [],
      "name": "renounceOwnership",
      "outputs": [],
      "stateMutability": "nonpayable",
      "type": "function"
    },
    {
      "inputs": [],
      "name": "rewardPerLike",
      "outputs": [
        {
          "internalType": "uint256",
          "name": "",
          "type": "uint256"
        }
      ],
      "stateMutability": "view",
      "type": "function"
    },
    {
      "inputs": [
        {
          "internalType": "address",
          "name": "newOwner",
          "type": "address"
        }
      ],
      "name": "transferOwnership",
      "outputs": [],
      "stateMutability": "nonpayable",
      "type": "function"
    },
    {
      "inputs": [
        {
          "internalType": "bytes32",
          "name": "newRoot",
          "type": "bytes32"
        }
      ],
      "name": "updateMerkleRoot",
      "outputs": [],
      "stateMutability": "nonpayable",
      "type": "function"
    },
    {
      "inputs": [
        {
          "internalType": "uint256",
          "name": "newAmount",
          "type": "uint256"
        }
      ],
      "name": "updateRewardPerLike",
      "outputs": [],
      "stateMutability": "nonpayable",
      "type": "function"
    },
    {
      "stateMutability": "payable",
      "type": "receive"
    }
  ],
  "bytecode": "0x608060405266038d7ea4c6800060025534801561001b57600080fd5b506001600055338061004757604051631e4fbdf760e01b81526000600482015260240160405180910390fd5b61005081610056565b506100a8565b600180546001600160a01b038381166001600160a01b0319831681179093556040519116919082907f8be0079c531659141344cd1fd0a4f28419497f9722a3daafe3b4186f6b6457e090600090a35050565b610c12806100b76000396000f3fe6080604052600436106100ec5760003560e01c8063abd40e1e1161008a578063d645a3de11610059578063d645a3de1461026e578063db2e21bc1461028e578063f2fde38b146102a3578063f6ed2017146102c357600080fd5b8063abd40e1e146101d8578063b05c438f146101f8578063b9e35db01461020b578063bd8343451461024157600080fd5b8063715018a6116100c6578063715018a6146101705780638da5cb5b1461018557806392bd7b2c146101ad57806395646fd9146101c257600080fd5b80632eb4a7ab146100f857806331d7a262146101215780634783f0ef1461014e57600080fd5b366100f357005b600080fd5b34801561010457600080fd5b5061010e60035481565b6040519081526020015b60405180910390f35b34801561012d57600080fd5b5061010e61013c366004610a94565b60056020526000908152604090205481565b34801561015a57600080fd5b5061016e610169366004610aaf565b6102f9565b005b34801561017c57600080fd5b5061016e61033d565b34801561019157600080fd5b506001546040516001600160a01b039091168152602001610118565b3480156101b957600080fd5b5061016e610351565b3480156101ce57600080fd5b5061010e60025481565b3480156101e457600080fd5b5061016e6101f3366004610ac8565b61048a565b61016e610206366004610b47565b6106eb565b34801561021757600080fd5b5061010e610226366004610a94565b6001600160a01b031660009081526004602052604090205490565b34801561024d57600080fd5b5061010e61025c366004610a94565b60046020526000908152604090205481565b34801561027a57600080fd5b5061016e610289366004610aaf565b610808565b34801561029a57600080fd5b5061016e610845565b3480156102af57600080fd5b5061016e6102be366004610a94565b6108fa565b3480156102cf57600080fd5b5061010e6102de366004610a94565b6001600160a01b031660009081526005602052604090205490565b610301610938565b60038190556040518181527f90004c04698bc3322499a575ed3752dd4abf33e0a7294c06a787a0fe01bea941906020015b60405180910390a150565b610345610938565b61034f6000610965565b565b6103596109b7565b33600090815260056020526040902054806103b05760405162461bcd60e51b81526020600482015260126024820152714e6f2070656e64696e67207265776172647360701b60448201526064015b60405180910390fd5b336000818152600560205260408082208290555190919083908381818185875af1925050503d8060008114610401576040519150601f19603f3d011682016040523d82523d6000602084013e610406565b606091505b50509050806104495760405162461bcd60e51b815260206004820152600f60248201526e151c985b9cd9995c8819985a5b1959608a1b60448201526064016103a7565b60405182815233907ffc30cddea38e2bf4d6ea7d3f9ed3b6ad7f176419f4963bd81318067a4aee73fe9060200160405180910390a2505061034f6001600055565b6104926109b7565b600083116104d85760405162461bcd60e51b81526020600482015260136024820152724e6f207265776172647320746f20636c61696d60681b60448201526064016103a7565b336000908152600460205260409020548084116105375760405162461bcd60e51b815260206004820152601b60248201527f416c726561647920636c61696d656420616c6c2072657761726473000000000060448201526064016103a7565b60006105438286610b87565b6040516bffffffffffffffffffffffff193360601b166020820152603481018790529091506000906054016040516020818303038152906040528051906020012090506105c78585808060200260200160405190810160405280939291908181526020018383602002808284376000920191909152505060035491508490506109e1565b61060a5760405162461bcd60e51b815260206004820152601460248201527324b73b30b634b21026b2b935b63290383937b7b360611b60448201526064016103a7565b336000818152600460205260408082208990555190919084908381818185875af1925050503d806000811461065b576040519150601f19603f3d011682016040523d82523d6000602084013e610660565b606091505b50509050806106a35760405162461bcd60e51b815260206004820152600f60248201526e151c985b9cd9995c8819985a5b1959608a1b60448201526064016103a7565b60405183815233907ffc30cddea38e2bf4d6ea7d3f9ed3b6ad7f176419f4963bd81318067a4aee73fe9060200160405180910390a2505050506106e66001600055565b505050565b60025434101561073d5760405162461bcd60e51b815260206004820152601a60248201527f496e73756666696369656e742072657761726420616d6f756e7400000000000060448201526064016103a7565b6001600160a01b0382166107935760405162461bcd60e51b815260206004820152601760248201527f496e76616c69642063726561746f72206164647265737300000000000000000060448201526064016103a7565b6001600160a01b038216600090815260056020526040812080543492906107bb908490610b9a565b909155505060408051348152602081018390526001600160a01b038416917feafb9fc200c0649f201654890c7c9185964f2f4ff66727753763452c51bd9286910160405180910390a25050565b610810610938565b60028190556040518181527fe7fca20a845ccc07535ff95293a502f93dbf8a1106113e56257e692a0904511190602001610332565b61084d610938565b4760006108626001546001600160a01b031690565b6001600160a01b03168260405160006040518083038185875af1925050503d80600081146108ac576040519150601f19603f3d011682016040523d82523d6000602084013e6108b1565b606091505b50509050806108f65760405162461bcd60e51b815260206004820152601160248201527015da5d1a191c985dd85b0819985a5b1959607a1b60448201526064016103a7565b5050565b610902610938565b6001600160a01b03811661092c57604051631e4fbdf760e01b8152600060048201526024016103a7565b61093581610965565b50565b6001546001600160a01b0316331461034f5760405163118cdaa760e01b81523360048201526024016103a7565b600180546001600160a01b038381166001600160a01b0319831681179093556040519116919082907f8be0079c531659141344cd1fd0a4f28419497f9722a3daafe3b4186f6b6457e090600090a35050565b6002600054036109da57604051633ee5aeb560e01b815260040160405180910390fd5b6002600055565b6000826109ee85846109f7565b14949350505050565b600081815b8451811015610a3c57610a2882868381518110610a1b57610a1b610bad565b6020026020010151610a46565b915080610a3481610bc3565b9150506109fc565b5090505b92915050565b6000818310610a62576000828152602084905260409020610a71565b60008381526020839052604090205b9392505050565b80356001600160a01b0381168114610a8f57600080fd5b919050565b600060208284031215610aa657600080fd5b610a7182610a78565b600060208284031215610ac157600080fd5b5035919050565b600080600060408486031215610add57600080fd5b83359250602084013567ffffffffffffffff80821115610afc57600080fd5b818601915086601f830112610b1057600080fd5b813581811115610b1f57600080fd5b8760208260051b8501011115610b3457600080fd5b6020830194508093505050509250925092565b60008060408385031215610b5a57600080fd5b610b6383610a78565b946020939093013593505050565b634e487b7160e01b600052601160045260246000fd5b81810381811115610a4057610a40610b71565b80820180821115610a4057610a40610b71565b634e487b7160e01b600052603260045260246000fd5b600060018201610bd557610bd5610b71565b506001019056fea2646970667358221220898869460c0ec57938b5fd32b6f9a5ad34070e19d002848e7c9f46e3c94bd72f64736f6c63430008140033",
  "linkReferences": {},
  "deployedLinkReferences": {}
}